{
  "contractName": "Products",
  "abi": [
    {
      "constant": true,
      "inputs": [
        {
          "internalType": "uint256",
          "name": "",
          "type": "uint256"
        }
      ],
      "name": "categories",
      "outputs": [
        {
          "internalType": "uint256",
          "name": "id",
          "type": "uint256"
        },
        {
          "internalType": "string",
          "name": "name",
          "type": "string"
        },
        {
          "internalType": "bool",
          "name": "isDeleted",
          "type": "bool"
        }
      ],
      "payable": false,
      "stateMutability": "view",
      "type": "function"
    },
    {
      "constant": true,
      "inputs": [],
      "name": "categoryCount",
      "outputs": [
        {
          "internalType": "uint256",
          "name": "",
          "type": "uint256"
        }
      ],
      "payable": false,
      "stateMutability": "view",
      "type": "function"
    },
    {
      "constant": true,
      "inputs": [],
      "name": "productCount",
      "outputs": [
        {
          "internalType": "uint256",
          "name": "",
          "type": "uint256"
        }
      ],
      "payable": false,
      "stateMutability": "view",
      "type": "function"
    },
    {
      "constant": true,
      "inputs": [
        {
          "internalType": "uint256",
          "name": "",
          "type": "uint256"
        }
      ],
      "name": "products",
      "outputs": [
        {
          "internalType": "uint256",
          "name": "id",
          "type": "uint256"
        },
        {
          "internalType": "string",
          "name": "name",
          "type": "string"
        },
        {
          "internalType": "uint256",
          "name": "categoryId",
          "type": "uint256"
        },
        {
          "internalType": "uint256",
          "name": "price",
          "type": "uint256"
        },
        {
          "internalType": "string",
          "name": "imageHash",
          "type": "string"
        },
        {
          "internalType": "string",
          "name": "userId",
          "type": "string"
        },
        {
          "internalType": "uint256",
          "name": "sellerPicksEndTimestamp",
          "type": "uint256"
        },
        {
          "internalType": "bool",
          "name": "isDeleted",
          "type": "bool"
        }
      ],
      "payable": false,
      "stateMutability": "view",
      "type": "function"
    },
    {
      "constant": true,
      "inputs": [],
      "name": "purchaseInfoCount",
      "outputs": [
        {
          "internalType": "uint256",
          "name": "",
          "type": "uint256"
        }
      ],
      "payable": false,
      "stateMutability": "view",
      "type": "function"
    },
    {
      "constant": true,
      "inputs": [
        {
          "internalType": "uint256",
          "name": "",
          "type": "uint256"
        }
      ],
      "name": "purchaseInfos",
      "outputs": [
        {
          "internalType": "uint256",
          "name": "id",
          "type": "uint256"
        },
        {
          "internalType": "uint256",
          "name": "detailsCount",
          "type": "uint256"
        },
        {
          "internalType": "string",
          "name": "buyerId",
          "type": "string"
        },
        {
          "internalType": "uint256",
          "name": "shipTimestamp",
          "type": "uint256"
        },
        {
          "internalType": "uint256",
          "name": "deliverTimestamp",
          "type": "uint256"
        },
        {
          "internalType": "string",
          "name": "saleId",
          "type": "string"
        },
        {
          "internalType": "string",
          "name": "phoneNumber",
          "type": "string"
        },
        {
          "internalType": "string",
          "name": "userAddress",
          "type": "string"
        },
        {
          "internalType": "string",
          "name": "pin",
          "type": "string"
        },
        {
          "internalType": "string",
          "name": "status",
          "type": "string"
        }
      ],
      "payable": false,
      "stateMutability": "view",
      "type": "function"
    },
    {
      "constant": true,
      "inputs": [],
      "name": "sellerPicksCount",
      "outputs": [
        {
          "internalType": "uint256",
          "name": "",
          "type": "uint256"
        }
      ],
      "payable": false,
      "stateMutability": "view",
      "type": "function"
    },
    {
      "constant": true,
      "inputs": [
        {
          "internalType": "uint256",
          "name": "",
          "type": "uint256"
        }
      ],
      "name": "sellerPicksList",
      "outputs": [
        {
          "internalType": "uint256",
          "name": "id",
          "type": "uint256"
        },
        {
          "internalType": "string",
          "name": "totalPrice",
          "type": "string"
        },
        {
          "internalType": "uint256",
          "name": "productId",
          "type": "uint256"
        },
        {
          "internalType": "uint256",
          "name": "quantity",
          "type": "uint256"
        }
      ],
      "payable": false,
      "stateMutability": "view",
      "type": "function"
    },
    {
      "constant": false,
      "inputs": [
        {
          "internalType": "string",
          "name": "_name",
          "type": "string"
        },
        {
          "internalType": "uint256",
          "name": "_categoryId",
          "type": "uint256"
        },
        {
          "internalType": "uint256",
          "name": "_price",
          "type": "uint256"
        },
        {
          "internalType": "string",
          "name": "_imageHash",
          "type": "string"
        },
        {
          "internalType": "string",
          "name": "_userId",
          "type": "string"
        }
      ],
      "name": "addProduct",
      "outputs": [],
      "payable": false,
      "stateMutability": "nonpayable",
      "type": "function"
    },
    {
      "constant": false,
      "inputs": [
        {
          "internalType": "uint256",
          "name": "_id",
          "type": "uint256"
        },
        {
          "internalType": "string",
          "name": "_name",
          "type": "string"
        },
        {
          "internalType": "uint256",
          "name": "_categoryId",
          "type": "uint256"
        },
        {
          "internalType": "uint256",
          "name": "_price",
          "type": "uint256"
        },
        {
          "internalType": "string",
          "name": "_imageHash",
          "type": "string"
        },
        {
          "internalType": "string",
          "name": "_userId",
          "type": "string"
        },
        {
          "internalType": "bool",
          "name": "_isDeleted",
          "type": "bool"
        }
      ],
      "name": "updateProduct",
      "outputs": [],
      "payable": false,
      "stateMutability": "nonpayable",
      "type": "function"
    },
    {
      "constant": false,
      "inputs": [
        {
          "internalType": "uint256",
          "name": "_id",
          "type": "uint256"
        },
        {
          "internalType": "uint256",
          "name": "_sellerPicksEndTimestamp",
          "type": "uint256"
        }
      ],
      "name": "updateProductSellerPicks",
      "outputs": [],
      "payable": false,
      "stateMutability": "nonpayable",
      "type": "function"
    },
    {
      "constant": false,
      "inputs": [
        {
          "internalType": "string",
          "name": "_name",
          "type": "string"
        }
      ],
      "name": "addCategory",
      "outputs": [],
      "payable": false,
      "stateMutability": "nonpayable",
      "type": "function"
    },
    {
      "constant": false,
      "inputs": [
        {
          "internalType": "uint256",
          "name": "_id",
          "type": "uint256"
        },
        {
          "internalType": "string",
          "name": "_name",
          "type": "string"
        },
        {
          "internalType": "bool",
          "name": "_isDeleted",
          "type": "bool"
        }
      ],
      "name": "updateCategory",
      "outputs": [],
      "payable": false,
      "stateMutability": "nonpayable",
      "type": "function"
    },
    {
      "constant": true,
      "inputs": [
        {
          "internalType": "uint256",
          "name": "purchaseInfoId",
          "type": "uint256"
        },
        {
          "internalType": "uint256",
          "name": "purchaseInfoDetailId",
          "type": "uint256"
        }
      ],
      "name": "getPurchaseInfoProductId",
      "outputs": [
        {
          "internalType": "uint256",
          "name": "",
          "type": "uint256"
        }
      ],
      "payable": false,
      "stateMutability": "view",
      "type": "function"
    },
    {
      "constant": true,
      "inputs": [
        {
          "internalType": "uint256",
          "name": "purchaseInfoId",
          "type": "uint256"
        },
        {
          "internalType": "uint256",
          "name": "purchaseInfoDetailId",
          "type": "uint256"
        }
      ],
      "name": "getPurchaseInfoAmount",
      "outputs": [
        {
          "internalType": "uint256",
          "name": "",
          "type": "uint256"
        }
      ],
      "payable": false,
      "stateMutability": "view",
      "type": "function"
    },
    {
      "constant": true,
      "inputs": [
        {
          "internalType": "uint256",
          "name": "purchaseInfoId",
          "type": "uint256"
        },
        {
          "internalType": "uint256",
          "name": "purchaseInfoDetailId",
          "type": "uint256"
        }
      ],
      "name": "getPurchaseInfoUnitPrice",
      "outputs": [
        {
          "internalType": "uint256",
          "name": "",
          "type": "uint256"
        }
      ],
      "payable": false,
      "stateMutability": "view",
      "type": "function"
    },
    {
      "constant": false,
      "inputs": [
        {
          "internalType": "uint256[]",
          "name": "_productIds",
          "type": "uint256[]"
        },
        {
          "internalType": "string",
          "name": "_buyerId",
          "type": "string"
        },
        {
          "internalType": "address payable[]",
          "name": "_sellerAddresses",
          "type": "address[]"
        },
        {
          "internalType": "uint256[]",
          "name": "_amounts",
          "type": "uint256[]"
        },
        {
          "internalType": "string",
          "name": "_saleId",
          "type": "string"
        },
        {
          "internalType": "uint256",
          "name": "_saleOff",
          "type": "uint256"
        },
        {
          "internalType": "string",
          "name": "_phoneNumber",
          "type": "string"
        },
        {
          "internalType": "string",
          "name": "_userAddress",
          "type": "string"
        },
        {
          "internalType": "address payable",
          "name": "_siteAddress",
          "type": "address"
        },
        {
          "internalType": "uint256",
          "name": "_commission",
          "type": "uint256"
        },
        {
          "internalType": "string",
          "name": "_pin",
          "type": "string"
        }
      ],
      "name": "purchaseProduct",
      "outputs": [],
      "payable": true,
      "stateMutability": "payable",
      "type": "function"
    },
    {
      "constant": false,
      "inputs": [
        {
          "internalType": "uint256",
          "name": "_id",
          "type": "uint256"
        },
        {
          "internalType": "string",
          "name": "_pin",
          "type": "string"
        }
      ],
      "name": "comfirmDelivered",
      "outputs": [],
      "payable": false,
      "stateMutability": "nonpayable",
      "type": "function"
    },
    {
      "constant": false,
      "inputs": [
        {
          "internalType": "string",
          "name": "_totalPrice",
          "type": "string"
        },
        {
          "internalType": "uint256",
          "name": "_productId",
          "type": "uint256"
        },
        {
          "internalType": "uint256",
          "name": "_quantity",
          "type": "uint256"
        },
        {
          "internalType": "address payable",
          "name": "_siteAddress",
          "type": "address"
        }
      ],
      "name": "sellerPicksPurchase",
      "outputs": [],
      "payable": true,
      "stateMutability": "payable",
      "type": "function"
    }
  ],
  "bytecode": "0x60806040526000805560006002556000600455600060065534801561002357600080fd5b50612e84806100336000396000f3fe6080604052600436106101145760003560e01c80638822467b116100a0578063e0f6ef8711610064578063e0f6ef87146103c5578063e8cfcce1146103f0578063ec163fe51461041b578063ee79ec0f14610461578063f08ec8461461048a57610114565b80638822467b146102d657806395d14321146102f2578063b535f9491461031d578063c6cdbe5e1461035d578063cfb380a61461039c57610114565b806351952ec1116100e757806351952ec1146101e757806351cd461d1461020357806366224d8e1461022c5780636658f8db146102555780637acc0b201461029257610114565b80631360decf146101195780631a36fc75146101565780632be32dbb146101935780632e0dcbf7146101be575b600080fd5b34801561012557600080fd5b50610140600480360361013b91908101906124cf565b6104b3565b60405161014d9190612a38565b60405180910390f35b34801561016257600080fd5b5061017d600480360361017891908101906124cf565b6104e5565b60405161018a9190612a38565b60405180910390f35b34801561019f57600080fd5b506101a8610517565b6040516101b59190612a38565b60405180910390f35b3480156101ca57600080fd5b506101e560048036036101e0919081019061218a565b61051d565b005b61020160048036036101fc91908101906121cb565b6105b1565b005b34801561020f57600080fd5b5061022a600480360361022591908101906123e9565b6106f6565b005b34801561023857600080fd5b50610253600480360361024e9190810190612382565b610a9d565b005b34801561026157600080fd5b5061027c600480360361027791908101906124cf565b610cc6565b6040516102899190612a38565b60405180910390f35b34801561029e57600080fd5b506102b960048036036102b49190810190612305565b610cf8565b6040516102cd989796959493929190612add565b60405180910390f35b6102f060048036036102eb9190810190611fda565b610f15565b005b3480156102fe57600080fd5b506103076113a6565b6040516103149190612a38565b60405180910390f35b34801561032957600080fd5b50610344600480360361033f9190810190612305565b6113ac565b6040516103549493929190612a91565b60405180910390f35b34801561036957600080fd5b50610384600480360361037f9190810190612305565b611474565b60405161039393929190612a53565b60405180910390f35b3480156103a857600080fd5b506103c360048036036103be919081019061232e565b611543565b005b3480156103d157600080fd5b506103da611665565b6040516103e79190612a38565b60405180910390f35b3480156103fc57600080fd5b5061040561166b565b6040516104129190612a38565b60405180910390f35b34801561042757600080fd5b50610442600480360361043d9190810190612305565b611671565b6040516104589a99989796959493929190612b70565b60405180910390f35b34801561046d57600080fd5b50610488600480360361048391908101906124cf565b611a55565b005b34801561049657600080fd5b506104b160048036036104ac9190810190612246565b611a74565b005b600060056000848152602001908152602001600020600201600083815260200190815260200160002054905092915050565b600060056000848152602001908152602001600020600401600083815260200190815260200160002054905092915050565b60025481565b600260008154809291906001019190505550604051806060016040528060025481526020018281526020016000151581525060036000600254815260200190815260200160002060008201518160000155602082015181600101908051906020019061058a929190611cb2565b5060408201518160020160006101000a81548160ff02191690831515021790555090505050565b8073ffffffffffffffffffffffffffffffffffffffff166108fc349081150290604051600060405180830381858888f193505050501580156105f7573d6000803e3d6000fd5b506006600081548092919060010191905055506040518060800160405280600654815260200185815260200184815260200183815250600760006006548152602001908152602001600020600082015181600001556020820151816001019080519060200190610668929190611cb2565b5060408201518160020155606082015181600301559050506000826201518002905042600160008681526020019081526020016000206006015410156106ca5780420160016000868152602001908152602001600020600601819055506106ef565b8060016000868152602001908152602001600020600601600082825401925050819055505b5050505050565b6106fe611d32565b600160008981526020019081526020016000206040518061010001604052908160008201548152602001600182018054600181600116156101000203166002900480601f0160208091040260200160405190810160405280929190818152602001828054600181600116156101000203166002900480156107c05780601f10610795576101008083540402835291602001916107c0565b820191906000526020600020905b8154815290600101906020018083116107a357829003601f168201915b505050505081526020016002820154815260200160038201548152602001600482018054600181600116156101000203166002900480601f0160208091040260200160405190810160405280929190818152602001828054600181600116156101000203166002900480156108765780601f1061084b57610100808354040283529160200191610876565b820191906000526020600020905b81548152906001019060200180831161085957829003601f168201915b50505050508152602001600582018054600181600116156101000203166002900480601f0160208091040260200160405190810160405280929190818152602001828054600181600116156101000203166002900480156109185780601f106108ed57610100808354040283529160200191610918565b820191906000526020600020905b8154815290600101906020018083116108fb57829003601f168201915b50505050508152602001600682015481526020016007820160009054906101000a900460ff1615151515815250509050610950611d32565b6040518061010001604052808a81526020018981526020018881526020018781526020018681526020018581526020018360c001518152602001841515815250905061099c8282611c09565b156109dc576040517f08c379a00000000000000000000000000000000000000000000000000000000081526004016109d3906129b8565b60405180910390fd5b80600160008b8152602001908152602001600020600082015181600001556020820151816001019080519060200190610a16929190611cb2565b5060408201518160020155606082015181600301556080820151816004019080519060200190610a47929190611cb2565b5060a0820151816005019080519060200190610a64929190611cb2565b5060c0820151816006015560e08201518160070160006101000a81548160ff021916908315150217905550905050505050505050505050565b610aa5611d79565b6003600085815260200190815260200160002060405180606001604052908160008201548152602001600182018054600181600116156101000203166002900480601f016020809104026020016040519081016040528092919081815260200182805460018160011615610100020316600290048015610b665780601f10610b3b57610100808354040283529160200191610b66565b820191906000526020600020905b815481529060010190602001808311610b4957829003601f168201915b505050505081526020016002820160009054906101000a900460ff1615151515815250509050610b94611d79565b604051806060016040528086815260200185815260200184151581525090508160200151604051602001610bc891906128be565b604051602081830303815290604052805190602001208160200151604051602001610bf391906128be565b60405160208183030381529060405280519060200120141580610c225750816040015115158160400151151514155b610c61576040517f08c379a0000000000000000000000000000000000000000000000000000000008152600401610c5890612a18565b60405180910390fd5b8060036000878152602001908152602001600020600082015181600001556020820151816001019080519060200190610c9b929190611cb2565b5060408201518160020160006101000a81548160ff0219169083151502179055509050505050505050565b600060056000848152602001908152602001600020600301600083815260200190815260200160002054905092915050565b6001602052806000526040600020600091509050806000015490806001018054600181600116156101000203166002900480601f016020809104026020016040519081016040528092919081815260200182805460018160011615610100020316600290048015610daa5780601f10610d7f57610100808354040283529160200191610daa565b820191906000526020600020905b815481529060010190602001808311610d8d57829003601f168201915b505050505090806002015490806003015490806004018054600181600116156101000203166002900480601f016020809104026020016040519081016040528092919081815260200182805460018160011615610100020316600290048015610e545780601f10610e2957610100808354040283529160200191610e54565b820191906000526020600020905b815481529060010190602001808311610e3757829003601f168201915b505050505090806005018054600181600116156101000203166002900480601f016020809104026020016040519081016040528092919081815260200182805460018160011615610100020316600290048015610ef25780601f10610ec757610100808354040283529160200191610ef2565b820191906000526020600020905b815481529060010190602001808311610ed557829003601f168201915b5050505050908060060154908060070160009054906101000a900460ff16905088565b600080905060008090505b8c51811015610f7957898181518110610f3557fe5b6020026020010151600160008f8481518110610f4d57fe5b602002602001015181526020019081526020016000206003015402820191508080600101915050610f20565b50606487820281610f8657fe5b0481039050670de0b6b3a76400008102341015610fd8576040517f08c379a0000000000000000000000000000000000000000000000000000000008152600401610fcf90612998565b60405180910390fd5b60046000815480929190600101919050555060405180610140016040528060045481526020018d5181526020018c8152602001428152602001600081526020018981526020018781526020018681526020018381526020016040518060400160405280600a81526020017fc490616e67206769616f00000000000000000000000000000000000000000000815250815250600560006004548152602001908152602001600020600082015181600001556020820151816001015560408201518160050190805190602001906110ae929190611cb2565b50606082015181600601556080820151816007015560a08201518160080190805190602001906110df929190611cb2565b5060c08201518160090190805190602001906110fc929190611cb2565b5060e082015181600a019080519060200190611119929190611cb2565b5061010082015181600b019080519060200190611137929190611cb2565b5061012082015181600c019080519060200190611155929190611cb2565b5090505060008090505b8c51811015611379578c818151811061117457fe5b60200260200101516005600060045481526020019081526020016000206002016000600184018152602001908152602001600020819055508981815181106111b857fe5b6020026020010151600560006004548152602001908152602001600020600301600060018401815260200190815260200160002081905550600160008e838151811061120057fe5b602002602001015181526020019081526020016000206003015460056000600454815260200190815260200160002060040160006001840181526020019081526020016000208190555089818151811061125657fe5b6020026020010151600160008f848151811061126e57fe5b602002602001015181526020019081526020016000206003015402915060648883028161129757fe5b04820391508a81815181106112a857fe5b602002602001015173ffffffffffffffffffffffffffffffffffffffff166108fc670de0b6b3a76400006064876064038602816112e157fe5b04029081150290604051600060405180830381858888f1935050505015801561130e573d6000803e3d6000fd5b508473ffffffffffffffffffffffffffffffffffffffff166108fc670de0b6b3a764000060648786028161133e57fe5b04029081150290604051600060405180830381858888f1935050505015801561136b573d6000803e3d6000fd5b50808060010191505061115f565b508b5160056000600454815260200190815260200160002060010181905550505050505050505050505050565b60065481565b6007602052806000526040600020600091509050806000015490806001018054600181600116156101000203166002900480601f01602080910402602001604051908101604052809291908181526020018280546001816001161561010002031660029004801561145e5780601f106114335761010080835404028352916020019161145e565b820191906000526020600020905b81548152906001019060200180831161144157829003601f168201915b5050505050908060020154908060030154905084565b6003602052806000526040600020600091509050806000015490806001018054600181600116156101000203166002900480601f0160208091040260200160405190810160405280929190818152602001828054600181600116156101000203166002900480156115265780601f106114fb57610100808354040283529160200191611526565b820191906000526020600020905b81548152906001019060200180831161150957829003601f168201915b5050505050908060020160009054906101000a900460ff16905083565b8060405160200161155491906128d5565b6040516020818303038152906040528051906020012060056000848152602001908152602001600020600b016040516020016115909190612961565b60405160208183030381529060405280519060200120146115e6576040517f08c379a00000000000000000000000000000000000000000000000000000000081526004016115dd90612978565b60405180910390fd5b4260056000848152602001908152602001600020600701819055506040518060400160405280600981526020017fc490c3a3206769616f000000000000000000000000000000000000000000000081525060056000848152602001908152602001600020600c019080519060200190611660929190611d9c565b505050565b60005481565b60045481565b6005602052806000526040600020600091509050806000015490806001015490806005018054600181600116156101000203166002900480601f0160208091040260200160405190810160405280929190818152602001828054600181600116156101000203166002900480156117295780601f106116fe57610100808354040283529160200191611729565b820191906000526020600020905b81548152906001019060200180831161170c57829003601f168201915b505050505090806006015490806007015490806008018054600181600116156101000203166002900480601f0160208091040260200160405190810160405280929190818152602001828054600181600116156101000203166002900480156117d35780601f106117a8576101008083540402835291602001916117d3565b820191906000526020600020905b8154815290600101906020018083116117b657829003601f168201915b505050505090806009018054600181600116156101000203166002900480601f0160208091040260200160405190810160405280929190818152602001828054600181600116156101000203166002900480156118715780601f1061184657610100808354040283529160200191611871565b820191906000526020600020905b81548152906001019060200180831161185457829003601f168201915b50505050509080600a018054600181600116156101000203166002900480601f01602080910402602001604051908101604052809291908181526020018280546001816001161561010002031660029004801561190f5780601f106118e45761010080835404028352916020019161190f565b820191906000526020600020905b8154815290600101906020018083116118f257829003601f168201915b50505050509080600b018054600181600116156101000203166002900480601f0160208091040260200160405190810160405280929190818152602001828054600181600116156101000203166002900480156119ad5780601f10611982576101008083540402835291602001916119ad565b820191906000526020600020905b81548152906001019060200180831161199057829003601f168201915b50505050509080600c018054600181600116156101000203166002900480601f016020809104026020016040519081016040528092919081815260200182805460018160011615610100020316600290048015611a4b5780601f10611a2057610100808354040283529160200191611a4b565b820191906000526020600020905b815481529060010190602001808311611a2e57829003601f168201915b505050505090508a565b8060016000848152602001908152602001600020600601819055505050565b6000855111611ab8576040517f08c379a0000000000000000000000000000000000000000000000000000000008152600401611aaf906129f8565b60405180910390fd5b60008311611afb576040517f08c379a0000000000000000000000000000000000000000000000000000000008152600401611af2906129d8565b60405180910390fd5b6000808154809291906001019190505550604051806101000160405280600054815260200186815260200185815260200184815260200183815260200182815260200160008152602001600015158152506001600080548152602001908152602001600020600082015181600001556020820151816001019080519060200190611b86929190611cb2565b5060408201518160020155606082015181600301556080820151816004019080519060200190611bb7929190611cb2565b5060a0820151816005019080519060200190611bd4929190611cb2565b5060c0820151816006015560e08201518160070160006101000a81548160ff0219169083151502179055509050505050505050565b600081602001518260400151836060015184608001518560a001518660c001518760e00151604051602001611c4497969594939291906128ec565b6040516020818303038152906040528051906020012083602001518460400151856060015186608001518760a001518860c001518960e00151604051602001611c9397969594939291906128ec565b6040516020818303038152906040528051906020012014905092915050565b828054600181600116156101000203166002900490600052602060002090601f016020900481019282601f10611cf357805160ff1916838001178555611d21565b82800160010185558215611d21579182015b82811115611d20578251825591602001919060010190611d05565b5b509050611d2e9190611e1c565b5090565b604051806101000160405280600081526020016060815260200160008152602001600081526020016060815260200160608152602001600081526020016000151581525090565b604051806060016040528060008152602001606081526020016000151581525090565b828054600181600116156101000203166002900490600052602060002090601f016020900481019282601f10611ddd57805160ff1916838001178555611e0b565b82800160010185558215611e0b579182015b82811115611e0a578251825591602001919060010190611def565b5b509050611e189190611e1c565b5090565b611e3e91905b80821115611e3a576000816000905550600101611e22565b5090565b90565b600081359050611e5081612dfc565b92915050565b600082601f830112611e6757600080fd5b8135611e7a611e7582612c63565b612c36565b91508181835260208401935060208101905083856020840282011115611e9f57600080fd5b60005b83811015611ecf5781611eb58882611e41565b845260208401935060208301925050600181019050611ea2565b5050505092915050565b600082601f830112611eea57600080fd5b8135611efd611ef882612c8b565b612c36565b91508181835260208401935060208101905083856020840282011115611f2257600080fd5b60005b83811015611f525781611f388882611fc5565b845260208401935060208301925050600181019050611f25565b5050505092915050565b600081359050611f6b81612e13565b92915050565b600082601f830112611f8257600080fd5b8135611f95611f9082612cb3565b612c36565b91508082526020830160208301858383011115611fb157600080fd5b611fbc838284612d6e565b50505092915050565b600081359050611fd481612e2a565b92915050565b60008060008060008060008060008060006101608c8e031215611ffc57600080fd5b60008c013567ffffffffffffffff81111561201657600080fd5b6120228e828f01611ed9565b9b505060208c013567ffffffffffffffff81111561203f57600080fd5b61204b8e828f01611f71565b9a505060408c013567ffffffffffffffff81111561206857600080fd5b6120748e828f01611e56565b99505060608c013567ffffffffffffffff81111561209157600080fd5b61209d8e828f01611ed9565b98505060808c013567ffffffffffffffff8111156120ba57600080fd5b6120c68e828f01611f71565b97505060a06120d78e828f01611fc5565b96505060c08c013567ffffffffffffffff8111156120f457600080fd5b6121008e828f01611f71565b95505060e08c013567ffffffffffffffff81111561211d57600080fd5b6121298e828f01611f71565b94505061010061213b8e828f01611e41565b93505061012061214d8e828f01611fc5565b9250506101408c013567ffffffffffffffff81111561216b57600080fd5b6121778e828f01611f71565b9150509295989b509295989b9093969950565b60006020828403121561219c57600080fd5b600082013567ffffffffffffffff8111156121b657600080fd5b6121c284828501611f71565b91505092915050565b600080600080608085870312156121e157600080fd5b600085013567ffffffffffffffff8111156121fb57600080fd5b61220787828801611f71565b945050602061221887828801611fc5565b935050604061222987828801611fc5565b925050606061223a87828801611e41565b91505092959194509250565b600080600080600060a0868803121561225e57600080fd5b600086013567ffffffffffffffff81111561227857600080fd5b61228488828901611f71565b955050602061229588828901611fc5565b94505060406122a688828901611fc5565b935050606086013567ffffffffffffffff8111156122c357600080fd5b6122cf88828901611f71565b925050608086013567ffffffffffffffff8111156122ec57600080fd5b6122f888828901611f71565b9150509295509295909350565b60006020828403121561231757600080fd5b600061232584828501611fc5565b91505092915050565b6000806040838503121561234157600080fd5b600061234f85828601611fc5565b925050602083013567ffffffffffffffff81111561236c57600080fd5b61237885828601611f71565b9150509250929050565b60008060006060848603121561239757600080fd5b60006123a586828701611fc5565b935050602084013567ffffffffffffffff8111156123c257600080fd5b6123ce86828701611f71565b92505060406123df86828701611f5c565b9150509250925092565b600080600080600080600060e0888a03121561240457600080fd5b60006124128a828b01611fc5565b975050602088013567ffffffffffffffff81111561242f57600080fd5b61243b8a828b01611f71565b965050604061244c8a828b01611fc5565b955050606061245d8a828b01611fc5565b945050608088013567ffffffffffffffff81111561247a57600080fd5b6124868a828b01611f71565b93505060a088013567ffffffffffffffff8111156124a357600080fd5b6124af8a828b01611f71565b92505060c06124c08a828b01611f5c565b91505092959891949750929550565b600080604083850312156124e257600080fd5b60006124f085828601611fc5565b925050602061250185828601611fc5565b9150509250929050565b61251481612d38565b82525050565b61252b61252682612d38565b612db0565b82525050565b600061253c82612cff565b6125468185612d1b565b9350612556818560208601612d7d565b80840191505092915050565b600061256d82612cf4565b6125778185612d0a565b9350612587818560208601612d7d565b61259081612dde565b840191505092915050565b60006125a682612cf4565b6125b08185612d1b565b93506125c0818560208601612d7d565b80840191505092915050565b6000815460018116600081146125e9576001811461260e57612652565b607f60028304166125fa8187612d1b565b955060ff1983168652808601935050612652565b6002820461261c8187612d1b565b955061262785612cdf565b60005b828110156126495781548189015260018201915060208101905061262a565b82880195505050505b505092915050565b6000612667601283612d0a565b91507f50696e206973206e6f7420636f727265637400000000000000000000000000006000830152602082019050919050565b60006126a7603083612d0a565b91507f50757263686173652070726f64756374206661696c65642c206e6f7420656e6f60008301527f7567682076616c756520746f20627579000000000000000000000000000000006020830152604082019050919050565b600061270d603283612d0a565b91507f4e65772070726f647563742076616c7565206d7573742062652064696666657260008301527f656e742066726f6d206f6c642076616c756500000000000000000000000000006020830152604082019050919050565b6000612773602983612d0a565b91507f4164642070726f64756374206661696c65642c207072696365203e203020697360008301527f20726571756972656400000000000000000000000000000000000000000000006020830152604082019050919050565b60006127d9602d83612d0a565b91507f4164642070726f64756374206661696c65642c206e616d65206e6f74206e756c60008301527f6c206973207265717569726564000000000000000000000000000000000000006020830152604082019050919050565b600061283f602a83612d0a565b91507f4e65772076616c7565206d75737420626520646966666572656e742066726f6d60008301527f206f6c642076616c7565000000000000000000000000000000000000000000006020830152604082019050919050565b6128a181612d64565b82525050565b6128b86128b382612d64565b612dc2565b82525050565b60006128ca828461259b565b915081905092915050565b60006128e18284612531565b915081905092915050565b60006128f8828a61259b565b915061290482896128a7565b60208201915061291482886128a7565b602082019150612924828761259b565b9150612930828661259b565b915061293c82856128a7565b60208201915061294c828461251a565b60018201915081905098975050505050505050565b600061296d82846125cc565b915081905092915050565b600060208201905081810360008301526129918161265a565b9050919050565b600060208201905081810360008301526129b18161269a565b9050919050565b600060208201905081810360008301526129d181612700565b9050919050565b600060208201905081810360008301526129f181612766565b9050919050565b60006020820190508181036000830152612a11816127cc565b9050919050565b60006020820190508181036000830152612a3181612832565b9050919050565b6000602082019050612a4d6000830184612898565b92915050565b6000606082019050612a686000830186612898565b8181036020830152612a7a8185612562565b9050612a89604083018461250b565b949350505050565b6000608082019050612aa66000830187612898565b8181036020830152612ab88186612562565b9050612ac76040830185612898565b612ad46060830184612898565b95945050505050565b600061010082019050612af3600083018b612898565b8181036020830152612b05818a612562565b9050612b146040830189612898565b612b216060830188612898565b8181036080830152612b338187612562565b905081810360a0830152612b478186612562565b9050612b5660c0830185612898565b612b6360e083018461250b565b9998505050505050505050565b600061014082019050612b86600083018d612898565b612b93602083018c612898565b8181036040830152612ba5818b612562565b9050612bb4606083018a612898565b612bc16080830189612898565b81810360a0830152612bd38188612562565b905081810360c0830152612be78187612562565b905081810360e0830152612bfb8186612562565b9050818103610100830152612c108185612562565b9050818103610120830152612c258184612562565b90509b9a5050505050505050505050565b6000604051905081810181811067ffffffffffffffff82111715612c5957600080fd5b8060405250919050565b600067ffffffffffffffff821115612c7a57600080fd5b602082029050602081019050919050565b600067ffffffffffffffff821115612ca257600080fd5b602082029050602081019050919050565b600067ffffffffffffffff821115612cca57600080fd5b601f19601f8301169050602081019050919050565b60008190508160005260206000209050919050565b600081519050919050565b600081519050919050565b600082825260208201905092915050565b600081905092915050565b6000612d3182612d44565b9050919050565b60008115159050919050565b600073ffffffffffffffffffffffffffffffffffffffff82169050919050565b6000819050919050565b82818337600083830152505050565b60005b83811015612d9b578082015181840152602081019050612d80565b83811115612daa576000848401525b50505050565b6000612dbb82612dcc565b9050919050565b6000819050919050565b6000612dd782612def565b9050919050565b6000601f19601f8301169050919050565b60008160f81b9050919050565b612e0581612d26565b8114612e1057600080fd5b50565b612e1c81612d38565b8114612e2757600080fd5b50565b612e3381612d64565b8114612e3e57600080fd5b5056fea365627a7a72315820029e3110075b39e814832359d610e9503ed15bdbd8f543e5842f43a5933ee12f6c6578706572696d656e74616cf564736f6c63430005100040",
  "source": "pragma solidity >=0.4.21 <0.7.0;\r\npragma experimental ABIEncoderV2;\r\n\r\ncontract Products{\r\n    // PRODUCT\r\n    struct product{\r\n        uint id;\r\n\r\n        string name;\r\n        uint categoryId;\r\n        uint price;\r\n        string imageHash;\r\n        string userId;\r\n        uint sellerPicksEndTimestamp;\r\n\r\n        bool isDeleted;\r\n    }\r\n\r\n    uint public productCount = 0;\r\n    mapping(uint => product) public products;\r\n\r\n    // event ProductAdded(\r\n    //     uint id,\r\n    //     string name,\r\n    //     uint price,\r\n    //     string imageHash,\r\n    //     string userId,\r\n    //     bool isdeleted\r\n    // );\r\n\r\n    function addProduct\r\n                (string memory _name, uint _categoryId, uint _price, string memory _imageHash, string memory _userId) public {\r\n        require(bytes(_name).length > 0, 'Add product failed, name not null is required');\r\n        require(_price > 0, 'Add product failed, price > 0 is required');\r\n\r\n        productCount++;\r\n        products[productCount] = product(productCount, _name, _categoryId, _price, _imageHash, _userId, 0, false);\r\n        // emit ProductAdded(productCount, _name, _price, 0, _imageHash, _userId, false);\r\n    }\r\n\r\n    function updateProduct\r\n        (uint _id, string memory _name, uint _categoryId, uint _price, string memory _imageHash, string memory _userId, bool _isDeleted)\r\n    public {\r\n        product memory _oldProduct = products[_id];\r\n        product memory _newProduct = product(_id, _name, _categoryId, _price, _imageHash, _userId, _oldProduct.sellerPicksEndTimestamp, _isDeleted);\r\n\r\n        require(!equals(_oldProduct, _newProduct), 'New product value must be different from old value');\r\n\r\n        products[_id] = _newProduct;\r\n    }\r\n\r\n    function equals(product memory _first, product memory _second) internal pure returns (bool) {\r\n        // Just compare the output of hashing all fields packed\r\n        return(keccak256(abi.encodePacked(_first.name, _first.categoryId, _first.price,\r\n            _first.imageHash, _first.userId, _first.sellerPicksEndTimestamp, _first.isDeleted)) == keccak256(abi.encodePacked(_second.name, \r\n            _second.categoryId, _second.price, _second.imageHash, _second.userId, _second.sellerPicksEndTimestamp, _second.isDeleted)));\r\n    }\r\n\r\n    function updateProductSellerPicks(uint _id, uint _sellerPicksEndTimestamp) public {\r\n        products[_id].sellerPicksEndTimestamp = _sellerPicksEndTimestamp;\r\n    }\r\n\r\n    // CATEGORY\r\n    struct category{\r\n        uint id;\r\n\r\n        string name;\r\n\r\n        bool isDeleted;\r\n    }\r\n\r\n    uint public categoryCount = 0;\r\n    mapping(uint => category) public categories;\r\n\r\n    function addCategory(string memory _name) public {\r\n        categoryCount++;\r\n        categories[categoryCount] = category(categoryCount, _name, false);\r\n    }\r\n\r\n    function updateCategory(uint _id, string memory _name, bool _isDeleted) public {\r\n        category memory _oldCategory = categories[_id];\r\n        category memory _newCategory = category(_id, _name, _isDeleted);\r\n\r\n        require(keccak256(abi.encodePacked(_newCategory.name)) != keccak256(abi.encodePacked(_oldCategory.name)) ||\r\n        _newCategory.isDeleted != _oldCategory.isDeleted, 'New value must be different from old value');\r\n\r\n        categories[_id] = _newCategory;\r\n    }\r\n\r\n    // event ProductPurchased(\r\n    //     uint id,\r\n\r\n    //     uint productId,\r\n    //     string userId,\r\n    //     uint totalPrice,\r\n    //     uint amount,\r\n    //     uint timestamp\r\n    // );\r\n\r\n    // PURCHASE INFO\r\n    struct purchaseInfo{\r\n        uint id;\r\n\r\n        uint detailsCount;\r\n        mapping(uint => uint) productIds;\r\n        mapping (uint => uint) amounts;\r\n        mapping (uint => uint) unitPrices;\r\n\r\n        string buyerId;\r\n        uint shipTimestamp;\r\n        uint deliverTimestamp;\r\n        string saleId;\r\n        string phoneNumber;\r\n        string userAddress;\r\n\r\n        string pin;\r\n        string status;\r\n    }\r\n\r\n    uint public purchaseInfoCount = 0;\r\n    mapping(uint => purchaseInfo) public purchaseInfos;\r\n\r\n    function getPurchaseInfoProductId(uint purchaseInfoId, uint purchaseInfoDetailId) public view returns (uint) {\r\n        return purchaseInfos[purchaseInfoId].productIds[purchaseInfoDetailId];\r\n    }\r\n\r\n    function getPurchaseInfoAmount(uint purchaseInfoId, uint purchaseInfoDetailId) public view returns (uint) {\r\n        return purchaseInfos[purchaseInfoId].amounts[purchaseInfoDetailId];\r\n    }\r\n\r\n    function getPurchaseInfoUnitPrice(uint purchaseInfoId, uint purchaseInfoDetailId) public view returns (uint) {\r\n        return purchaseInfos[purchaseInfoId].unitPrices[purchaseInfoDetailId];\r\n    }\r\n\r\n    function purchaseProduct(uint[] memory _productIds, string memory _buyerId, address payable[] memory _sellerAddresses, uint[] memory _amounts, string memory _saleId, uint _saleOff, string memory _phoneNumber, string memory _userAddress, address payable _siteAddress, uint _commission, string memory _pin)\r\n        public payable {\r\n\r\n        uint totalPrice = 0;\r\n        for (uint i = 0; i < _productIds.length; i++)\r\n            totalPrice += products[_productIds[i]].price * _amounts[i];\r\n        totalPrice -= totalPrice * _saleOff / 100;\r\n        require(msg.value >= totalPrice * 1e18, 'Purchase product failed, not enough value to buy');\r\n\r\n        purchaseInfoCount++;\r\n        purchaseInfos[purchaseInfoCount] = purchaseInfo\r\n                                            (purchaseInfoCount, _productIds.length, _buyerId, now, 0, _saleId, _phoneNumber, _userAddress, _pin, \"ang giao\");\r\n\r\n        for (uint i = 0; i < _productIds.length; i++) {\r\n            purchaseInfos[purchaseInfoCount].productIds[i + 1] = _productIds[i];\r\n            purchaseInfos[purchaseInfoCount].amounts[i + 1] = _amounts[i];\r\n            purchaseInfos[purchaseInfoCount].unitPrices[i + 1] = products[_productIds[i]].price;\r\n            totalPrice = products[_productIds[i]].price * _amounts[i];\r\n            totalPrice -= totalPrice * _saleOff / 100;\r\n            address(_sellerAddresses[i]).transfer(totalPrice * (100 - _commission) / 100 * 1e18);\r\n            address(_siteAddress).transfer(totalPrice * (_commission) / 100 * 1e18);\r\n        }\r\n        purchaseInfos[purchaseInfoCount].detailsCount = _productIds.length;\r\n\r\n        // emit ProductPurchased(purchaseInfoCount, _productId, _userId, _product.price * _amount, _amount, now);\r\n    }\r\n\r\n    function comfirmDelivered(uint _id, string memory _pin) public {\r\n        require(keccak256(abi.encodePacked(purchaseInfos[_id].pin)) == keccak256(abi.encodePacked(_pin)), 'Pin is not correct');\r\n\r\n        purchaseInfos[_id].deliverTimestamp = now;\r\n        purchaseInfos[_id].status = \" giao\";\r\n    }\r\n\r\n    // SELLER PICKS\r\n    struct sellerPicks{\r\n        uint id;\r\n\r\n        string totalPrice;\r\n        uint productId;\r\n        uint quantity;\r\n    }\r\n\r\n    uint public sellerPicksCount = 0;\r\n    mapping(uint => sellerPicks) public sellerPicksList;\r\n\r\n    function sellerPicksPurchase(string memory _totalPrice, uint _productId, uint _quantity, address payable _siteAddress) public payable {\r\n        address(_siteAddress).transfer(msg.value);\r\n\r\n        sellerPicksCount++;\r\n        sellerPicksList[sellerPicksCount] = sellerPicks(sellerPicksCount, _totalPrice, _productId, _quantity);\r\n        \r\n        uint addDate = 60 * 60 * 24 * _quantity;\r\n        if (products[_productId].sellerPicksEndTimestamp < now)\r\n            products[_productId].sellerPicksEndTimestamp = now + addDate;\r\n        else \r\n            products[_productId].sellerPicksEndTimestamp += addDate;\r\n    }\r\n}",
  "sourcePath": "E:\\Blockchain\\E-commerce_Blockchain\\E-Commerce\\contracts\\Products.sol",
  "compiler": {
    "name": "solc",
    "version": "0.5.16+commit.9c3226ce.Emscripten.clang"
  },
  "schemaVersion": "3.4.8",
  "updatedAt": "2022-07-06T20:28:47.986Z",
  "devdoc": {
    "methods": {}
  },
  "userdoc": {
    "methods": {}
  }
}